:020000020000FC
:1020000007EB0093E50000E10093E6000FE000938A
:10201000E70000E80093E40008950F921F920F93E9
:102020001F932F933F93AF93BF93EF93FF93125060
:10203000003209F40CE20A52000F000FE2E8F0E26D
:102040000024E00FF01DACEEBB27212F1695A10F49
:1020500034E000EF20FD0295059020FD02941C90D5
:10206000102210281C9215963A95B1F7FF91EF9126
:10207000BF91AF913F912F911F910F911F900F90A2
:102080000895080A0A0E00080A0200000000000075
:102090000A0001050A0008000004090505050801F9
:1020A000010001010E0101010B0100050B000104FB
:1020B0000B0101040F010101010001050F010105E0
:1020C0000B010002000400000000080000080000EE
:1020D0000A010002000400000000000000000105E9
:1020E0000F000109090301040401010901030104AE
:1020F0000E0101040E0001040D0100050F0000088F
:102100000002000105010804060800040401080794
:102110000500000705080105050101050E00010580
:10212000050901050E080102000901080002000569
:102130000501080404040005050C0802000C08024F
:102140000002090000050104040100020008010169
:0E21500001010000000000000001090F0F0F48
:040000000C9400015B
:040014000C949901AE
:100200000FEF0DBF04E00EBF0E9400101DB1137F61
:100210000EB10C601DB90EB900E000937F0014B15F
:100220001F7205B1006D14B905B9F89408E0009388
:10023000B60001E00093700001E00093B0000027D9
:100240000DBB00E000930001009305010093030142
:1002500000930401009302010E9432010E947B017D
:100260000C942C010CB113B10C70107D012B2EEFEE
:100270002A950000E9F71CB123B11C70207D122BD8
:10028000011781F70C3911F4789408950C3511F4A5
:10029000F89408950C3C71F50F930FB70F931F93CB
:1002A0002F933F934F935F930091000110910101B1
:1002B0002091050130910301409102015091040108
:1002C00000E010E020E030E040E050E0009300016A
:1002D0001093010120930501309303014093020123
:1002E000509304015F914F913F912F911F910F9176
:1002F0000FBF0F91089560E340910201460F042F54
:1003000012E00E940D1040910401460F042F14E0EA
:100310000E940D1040910301460F042F15E00E942A
:100320000D1040910501460F042F17E00E940D109B
:100330000895F8940F930FB70F931F932F933F9344
:100340004F935F93009100011091010120910501ED
:1003500030910301409102015091040103951A303C
:1003600031F40B3049F400E010E020E033950D301B
:1003700019F400E0139523952A3009F420E03A306F
:1003800011F430E05395563011F450E0439500934A
:100390000001109301012093050130930301409364
:1003A0000201509304015F914F913F912F911F9152
:0C03B0000F910FBF0F9178941895FFCFAC
:00000001FF
